:1000000019C0FECFFDCFFCCFFBCFFACFF9CFF8CF91
:10001000F7CFF6CFF5CFF4CFF3CFF2CFF1CFF0CFCC
:10002000EFCFEECFEDCFECCFEBCF80C00200E00002
:100030002A000000F894EE27ECBBF1E0FBBFEBBF19
:10004000E5BF8DE0A2E0BB27ED938A95E9F780E05C
:1000500092E0A0E6ED930197E9F7ECE2F0E08591FC
:100060009591009761F0A591B59105901590BF010C
:10007000F00105900D920197E1F7FB01F0CFEFE55C
:10008000EDBFE2E0EEBFC0EED0E000C0E0E0EABBD2
:10009000EBBBE7BBE8BBEFEFE4BBE0E0E5BBE1BBFC
:1000A000E2BBE3BFE2BFECBFEFBDEEBDEDBDECBD1B
:1000B000E7BDE6BDEBBDEABDE9BDE8BDE2BDE5BD1E
:1000C000E4BDE3BDE9BFE5BFE4BFEAB9E0E8E8B9F4
:1000D000E0E0E0BFE6B9EDB9E6BFA8E026D0FFCF8B
:1000E000FFCFAA93E5B3EF70AE2FE881E07FEA2B54
:1000F000E5BB45D0AA9A43D0AA9841D03EC0AA9366
:10010000A881EFDFE881E295E883A881EADF85E84E
:100110008A95F1F732C0A2E036D0ACE0F0DFA1E082
:1001200032D0E0E04E2E5E2E0895AA93E4B3E06F45
:10013000E4BBA29AA09AA19AAA98A898A9987880B4
:10014000E881E058E093E200E881E054E093E300C6
:10015000A4E1B0E023D01BD01AD019D0A0E2C1DFB7
:1001600088EC90E00197F1F7A8E2C9DFA4E0C7DFCF
:10017000A5E8C5DFA6E0C3DFCEDF219608958DE0B8
:100180008A95F1F70895BBDFA3E0B0E007C0A0E3D4
:10019000A8DF88EC90E00197F1F70895109639F008
:1001A00080ED97E00197F1F7A8951197C9F70895A9
:00000001FF
